:10000000FE2BCF1B0B2883134F1883170008840A7D
:100010000319CF0A080000308A000408840A820706
:10002000003456346F346C3474346134673465345E
:040030003A3400342A
:1001B2000030FA200130FA20033083129100973088
:1001C2009000900BE228910BE228E72808008312A6
:1001D2002C08A3002B08A2000A30A4000030A500BE
:1001E2002D30E1222D3083129100003092007021D7
:1001F200080083128F0006120F080D2183120617C2
:1002020006308E0030308D008D0B05298E0B0529AE
:10021200000083120613080083128C000C1C1329A1
:100222000614142906108C1C182986141929861004
:100232000C1D1D2906151E2906118C1D2229861545
:10024200080086110800831298019901141C2F29B5
:10025200160898070318990A17089907013003101E
:10026200960D970DFF3E031D302901300310950CAA
:10027200940CFF3E031D372914081504031D27297A
:1002820019089500180894000800831290001008BD
:100292000F398D000D088E001008F0398D000D0801
:1002A2008F0006160F088D00043003108D0CFF3EE0
:1002B200031D56290D080D21831206170D308D00DE
:1002C2008D0B6129831206130E080D218312061766
:1002D2000D308D008D0B6B298312061308008312DB
:1002E200960197011608110794001208930003184B
:1002F200930A961B93038312130895001508CF00E7
:10030200140884000120003A031908001608110796
:100312009400120893000318930A961B9303831206
:10032200130895001508CF00140884000120462107
:100332000130831296070318970A00309707732932
:1003420083121A081B040319CF299F019F0A9B1BC2
:10035200B629013003109A0D9B0DFF3E031DAB29F8
:1003620001309E001E089F07A8291B081D02031DBD
:10037200BC291A081C02031CC4291A089C021B0867
:10038200031C9D039D02013003109B0C9A0CFF3E3F
:10039200031DC52901309F02031DB6291D089B00BC
:1003A2001C089A00080000300D211A3083129100B7
:1003B200F8309000900BDB29910BDB290000033011
:1003C200FA200730831291007D309000900BE729CC
:1003D200910BE7290330FA200F3083129100473046
:1003E2009000900BF229910BF229F7290330FA20A1
:1003F2000230FA200230FA200830FA200030FA20C7
:100402000C30FA200030FA200630FA20080083125D
:100412009F01A0011A081B040319402AA101A10A85
:100422009B1B1F2A013003109A0D9B0DFF3E031DDB
:10043200142A01309E001E08A107112A0130031060
:100442009F0DA00DFF3E031D202A1B081D02031D48
:100452002C2A1A081C02031C352A1A089C021B08A3
:10046200031C9D039D021F14013003109B0C9A0C68
:10047200FF3E031D362A0130A102031D1F2A200858
:100482009B001F089A000800831293001303031DA8
:10049200662A10087F3E9100110896001608910006
:1004A20004300310910CFF3E031D522A11089200E2
:1004B2001208940016080F399100110895001408CB
:1004C200FA2083121508FA2008000230831213065C
:1004D200031D08001008BF3E91001108960016087F
:1004E200910004300310910CFF3E031D732A110882
:1004F20092001208940016080F3991001108950015
:100502001408FA2083121508FA20080083129301B6
:100512009001910185119201033012020318A52A5C
:1005220021308E008E0B932A8312851421308E0087
:100532008E0B992A8312851001308E000E089207C5
:1005420003301202031C912A92010830120203188E
:10055200CE2A21308E008E0BAC2A8312851413080A
:100562008E000E078F000F089300051DBB2A13088B
:100572000138BD2A1308FE398E000E08930021307F
:100582008E008E0BC22A8312851001308E000E0857
:10059200920708301202031CAA2A851513088E003E
:1005A2008F0103108E0D8F0D03108E0D8F0D0E080F
:1005B20090000F08910011088D0010088C000800AF
:1005C2008312AA002308A8002208A70025089B007E
:1005D20024089A0028089D0027089C0008228312FC
:1005E2001B08A8001A08A7000130A6002608AA07BF
:1005F20027082804031DE72A2A08840083138001A0
:100602000130AA0225089B0024089A0023089D00B5
:1006120022089C00A12183121A08A6002608A9001C
:1006220025089B0024089A0023089D0022089C00AC
:10063200082283121B08A3001A08A2000A3029020A
:10064200031C272B0730A6002608A9073030A60076
:100652002608A9072908A6002A0884002608831369
:1006620080000130AA0222082304031D032B01305B
:10067200A6002608AA070800143083168500860102
:100682008312851585108612D421D9200530831254
:10069200BF000030C0009001900A013045220130B5
:1006A2008312BD003D08C100410891000030031DC6
:1006B20080309200702183129001900A023045220C
:1006C200FC3083129A0003309B00872283120D08AC
:1006D20095000C0894000530960000309700242104
:1006E200831215089D0014089C00082283121B081F
:1006F200C0001A08BF00FC309A0003309B0087221A
:1007020083120D0895000C08940005309600003005
:1007120097002421831215089D0014089C00A12132
:1007220083121B08C3001A08C2004008AC003F082D
:10073200AB00E8202E30462183124308803ACF00D6
:1007420080304F02031DA72B0A3042020318AF2B41
:1007520000308312AB00AC00E820BB2B83124308AD
:10076200803ACF0080304F02031DB92B6430420221
:100772000318C02B00308312AB00AC00E8208312B8
:100782004308AC004208AB00E8208312051AD32BC1
:100792004C2B4130BE00EE30BD00BD0BCE2BBE0B4C
:1007A200CE2B00008312051EE02BCA2B4130BE0067
:1007B200EE30BD00BD0BDB2BBE0BDB2B000083122A
:1007C200051AED2BD72B4130BE00EE30BD00BD0B1C
:1007D200E82BBE0BE82B00008312051EFA2BE42B3C
:1007E2004130BE00EE30BD00BD0BF52BBE0BF52B2C
:0E07F20000008312051A4C2BF12B83013D2BC6
:02400E00F1FFC0
:00000001FF
