:10000000FE2BCF1B0B2883134F1883170008840A7D
:100010000319CF0A080000308A000408840A820706
:10002000003456346F346C3474346134673465345E
:100030003A34203434342E343134313431340034D1
:1004F60000308A2201308A2203308312910097301D
:100506009000900B842A910B842A892A0800831272
:100516008F0006120F089D228312061706308E00E2
:1005260030308D008D0B952A8E0B952A0000831294
:100536000613080083128C000C1CA32A0614A42A96
:1005460006108C1CA82A8614A92A86100C1DAD2A12
:100556000615AE2A06118C1DB22A861508008611CC
:100566000800FF30831685008601831286122E232B
:100576007B22A42383120D089A000C08990090018F
:10058600900A0130622301308312980018089B00FC
:100596001B0891000030031D80309200FD220028C8
:1005A6008312900010080F398D000D088E00100878
:1005B600F0398D000D088F0006160F088D000430E7
:1005C60003108D0CFF3E031DE32A0D089D228312A6
:1005D60006170D308D008D0BEE2A831206130E08BA
:1005E6009D22831206170D308D008D0BF82A83127B
:1005F6000613080083129601970116081107940046
:10060600120893000318930A961B93038312130888
:1006160095001508CF00140884000120003A03193C
:100626000800160811079400120893000318930A8D
:10063600961B93038312130895001508CF00140820
:1006460084000120D3220130831296070318970AEB
:1006560000309707002B00309D221A30831291003C
:10066600F8309000900B352B910B352B00000330A2
:100676008A220730831291007D309000900B412B27
:10068600910B412B03308A220F30831291004730A1
:100696009000900B4C2B910B4C2B512B03308A2244
:1006A60002308A2202308A2208308A2200308A22C8
:1006B6000C308A2200308A2206308A2208008312F1
:1006C60093001303031D832B10087F3E910011082E
:1006D60096001608910004300310910CFF3E031D8E
:1006E6006F2B110892001208940016080F3991001A
:1006F6001108950014088A22831215088A22080018
:10070600023083121306031D08001008BF3E910035
:10071600110896001608910004300310910CFF3E54
:10072600031D902B110892001208940016080F3929
:1007360091001108950014088A22831215088A224E
:1007460008008312930190019101851192010330F3
:1007560012020318C22B21308E008E0BB02B83128F
:10076600851421308E008E0BB62B83128510013036
:100776008E000E08920703301202031CAE2B920164
:10078600083012020318EB2B21308E008E0BC92B7A
:100796008312851413088E000E078F000F0893002E
:1007A600051DD82B13080138DA2B1308FE398E00E5
:1007B6000E08930021308E008E0BDF2B83128510DE
:1007C60001308E000E08920708301202031CC72B58
:1007D600851513088E008F0103108E0D8F0D0310E3
:1007E6008E0D8F0D0E0890000F08910011088D00D8
:0A07F60010088C0008008301B42AEB
:02400E00F1FFC0
:00000001FF
