:10000000FE2BCF1B0B2883134F1883170008840A7D
:100010000319CF0A080000308A000408840A820706
:100020000034573465346C3463346F346D34653464
:1000300021342034543468346534203472346134CB
:100040006E3467346534203469347334203430348A
:100050005634203474346F342034353456340034FC
:100182000130E7200830E72008000030E720013086
:10019200E72003308312910097309000900BCF2814
:1001A200910BCF28D4280800831224089B0023082F
:1001B2009A000A309C0000309D002530CE22253066
:1001C20083129100003092005D21080083128F009B
:1001D20006120F08FA208312061706308E003030FE
:1001E2008D008D0BF2288E0BF2280000831206136D
:1001F200080083128C000C1C002906140129061029
:100202008C1C05298614062986100C1D0A29061540
:100212000B2906118C1D0F2986150800861108006E
:100222008312900191010C1C1C290E0890070318DF
:10023200910A0F089107013003108E0D8F0DFF3EBA
:10024200031D1D29013003108D0C8C0CFF3E031D74
:1002520024290C080D04031D142911088D0010080F
:100262008C0008008312900010080F398D000D08D1
:100272008E001008F0398D000D088F0006160F0849
:100282008D00043003108D0CFF3E031D43290D0821
:10029200FA20831206170D308D008D0B4E29831222
:1002A20006130E08FA20831206170D308D008D0BEF
:1002B2005829831206130800831296019701160823
:1002C20011079400120893000318930A961B9303D4
:1002D2008312130895001508CF001408840001202A
:1002E200003A031908001608110794001208930037
:1002F2000318930A961B930383121308950015089B
:10030200CF001408840001203321013083129607A4
:100312000318970A00309707602983121208130402
:100322000319BC299701970A931BA32901300310D3
:10033200920D930DFF3E031D982901309600160879
:100342009707952913081502031DA92912081402FB
:10035200031CB129120894021308031C9503950289
:1003620001300310930C920CFF3E031DB2290130A1
:100372009702031DA3291508930014089200080090
:100382000030FA201A3083129100F8309000900B5E
:10039200C829910BC82900000330E72007308312D7
:1003A20091007D309000900BD429910BD429033019
:1003B200E7200F308312910047309000900BDF2925
:1003C200910BDF29E4290330E7200230E7200230D5
:1003D200E7200830E7200030E7200C30E72000302B
:1003E200E7200630E72008008312970198011208DF
:1003F200130403192D2A9901990A931B0C2A01301F
:100402000310920D930DFF3E031D012A0130960049
:1004120016089907FE2901300310970D980DFF3E2B
:10042200031D0D2A13081502031D192A12081402AE
:10043200031C222A120894021308031C9503950236
:10044200171401300310930C920CFF3E031D232A54
:1004520001309902031D0C2A180893001708920014
:100462000800831293001303031D532A10087F3ED2
:100472009100110896001608910004300310910CA7
:10048200FF3E031D3F2A110892001208940016082D
:100492000F399100110895001408E72083121508FE
:1004A200E7200800023083121306031D080010081B
:1004B200BF3E910011089600160891000430031007
:1004C200910CFF3E031D602A11089200120894004D
:1004D20016080F399100110895001408E7208312BD
:1004E2001508E720080083129301900191018511FC
:1004F2009201033012020318922A21308E008E0BD1
:10050200802A8312851421308E008E0B862A831254
:10051200851001308E000E08920703301202031C70
:100522007E2A9201083012020318BB2A21308E0063
:100532008E0B992A8312851413088E000E078F00E2
:100542000F089300051DA82A13080138AA2A1308C8
:10055200FE398E000E08930021308E008E0BAF2ADA
:100562008312851001308E000E08920708301202A5
:10057200031C972A851513088E008F0103108E0D18
:100582008F0D03108E0D8F0D0E0890000F08910035
:1005920011088D0010088C0008008312A2001B08AD
:1005A200A0001A089F001D0893001C089200200852
:1005B20095001F089400F52183121308A000120869
:1005C2009F0001309E001E08A2071F082004031D81
:1005D200D42A22088400831380010130A2021D085C
:1005E20093001C0892001B0895001A0894008E21A3
:1005F200831212089E001E08A1001D0893001C0809
:1006020092001B0895001A089400F5218312130822
:100612009B0012089A000A302102031C142B073097
:100622009E001E08A10730309E001E08A107210867
:100632009E00220884001E08831380000130A2025B
:100642001A081B04031DF02A01309E001E08A2078F
:10065200080005308312B7000030B800FC30920069
:100662000330930036088D0035088C0005308E006B
:1006720000308F00112183120D0895000C089400A0
:10068200F52183121308B8001208B700FC3092005B
:100692000330930036088D0035088C0005308E003B
:1006A20000308F00112183120D0895000C08940070
:1006B2008E2183121308BA001208B9003808A40068
:1006C2003708A300D5202E303321003083123A029E
:1006D2000A30031939020318792B303033213030B4
:1006E200332183123A08A4003908A300D520080058
:1006F200003083123A0264300319390203188A2B3C
:100702003030332183123A08A4003908A300D520DF
:10071200080083123A08A4003908A300D520080073
:1007220004308316850001308600831285158510FA
:100732008612C121C62001308312910080309200BE
:100742005D218312BE01BF013F08803ACF00803095
:100752004F02031DAE2B1E303E020318C72B023080
:100762008312BD004530BC00A930BB00BB0BB72BC8
:10077200BC0BB72BBD0BB72BBE2BC1200130831294
:10078200BE070318BF0A0030BF07A52BC62083127D
:100792009001900A01303222563033213130332118
:1007A2003A303321742283120D08B6000C08B500CA
:1007B2002A231A308312BC00F830BB00BB0BDF2B9C
:1007C200BC0BDF2B00008312061CC72B8230831266
:1007D200BC00DD30BB00BB0BEC2BBC0BEC2BF12BBC
:1007E2008312061CE72B8230BC00DD30BB00BB0B42
:0E07F200F82BBC0BF82BFD2BC72B8301912B92
:02400E00F1FFC0
:00000001FF
