:10000000FE2BCF1B0B2883134F1883170008840A7D
:100010000319CF0A080000308A000408840A820706
:10002000003456346F346C3474346134673465345E
:040030003A3400342A
:1002A00000307121013071210330831291009730A9
:1002B0009000900B5929910B59295E29080083124F
:1002C0001E0895001D0894000A3096000030970023
:1002D0001F30A2231F308312910000309200E721CB
:1002E000080083128F0006120F088421831206175C
:1002F00006308E0030308D008D0B7C298E0B7C29D2
:10030000000083120613080083128C000C1C8A293B
:1003100006148B2906108C1C8F29861490298610B0
:100320000C1D94290615952906118C1D99298615F1
:10033000080086110800831298019901141CA6294F
:10034000160898070318990A17089907013003102F
:10035000960D970DFF3E031DA72901300310950C44
:10036000940CFF3E031DAE2914081504031D9E299D
:1003700019089500180894000800831290001008CE
:100380000F398D000D088E001008F0398D000D0812
:100390008F0006160F088D00043003108D0CFF3EF1
:1003A000031DCD290D088421831206170D308D0001
:1003B0008D0BD829831206130E0884218312061789
:1003C0000D308D008D0BE229831206130800831275
:1003D000960197011608110794001208930003185C
:1003E000930A961B93038312130895001508CF00F8
:1003F000140884000120003A0319080016081107A8
:100400009400120893000318930A961B9303831217
:10041000130895001508CF00140884000120BD21A1
:100420000130831296070318970A00309707EA29CC
:1004300083120C080D040319462A9101910A8D1BA1
:100440002D2A013003108C0D8D0DFF3E031D222A35
:1004500001309000100891071F2A0D080F02031D9C
:10046000332A0C080E02031C3B2A0C088E020D08CE
:10047000031C8F038F02013003108D0C8C0CFF3E88
:10048000031D3C2A01309102031D2D2A0F088D0007
:100490000E088C000800003084211A30831291006D
:1004A000F8309000900B522A910B522A0000033032
:1004B00071210730831291007D309000900B5E2AED
:1004C000910B5E2A033071210F3083129100473067
:1004D0009000900B692A910B692A6E2A03307121D2
:1004E00002307121023071210830712100307121F8
:1004F0000C30712100307121063071210800831207
:10050000910192010C080D040319B72A9301930A73
:100510008D1B962A013003108C0D8D0DFF3E031D9F
:100520008B2A0130900010089307882A01300310AD
:10053000910D920DFF3E031D972A0D080F02031D1A
:10054000A32A0C080E02031CAC2A0C088E020D080C
:10055000031C8F038F021114013003108D0C8C0CBF
:10056000FF3E031DAD2A01309302031D962A120897
:100570008D0011088C000800831293001303031DE3
:10058000DD2A10087F3E91001108960016089100A0
:1005900004300310910CFF3E031DC92A110892007C
:1005A0001208940016080F399100110895001408DC
:1005B000712183121508712108000230831213067D
:1005C000031D08001008BF3E910011089600160890
:1005D000910004300310910CFF3E031DEA2A11081C
:1005E00092001208940016080F3991001108950026
:1005F0001408712183121508712108000430831634
:100600008500860183128515851086124B225021A4
:1006100005308312B2000030B300502183129001E4
:10062000900A0130BC2201308312AF002F08B400C1
:10063000340891000030031D80309200E7218312BE
:100640009001900A0230BC22482383120D089500C5
:100650000C08940005309600003097009B2183120F
:100660001508B3001408B20033089E0032089D003C
:100670005F2102308312B1000430B000BA30AF0005
:10068000AF0B402BB00B402BB10B402B00000D2BC0
:10069000831293019001910185119201033012029E
:1006A0000318662B21308E008E0B542B8312851479
:1006B00021308E008E0B5A2B8312851001308E0054
:1006C0000E08920703301202031C522B92010830CD
:1006D000120203188F2B21308E008E0B6D2B83128C
:1006E000851413088E000E078F000F089300051D58
:1006F0007C2B130801387E2B1308FE398E000E0860
:10070000930021308E008E0B832B831285100130D5
:100710008E000E08920708301202031C6B2B851501
:1007200013088E008F0103108E0D8F0D03108E0D98
:100730008F0D0E0890000F08910011088D00100811
:100740008C00080083129C0015089A001408990078
:1007500017088D0016088C001A088F0019088E00E3
:100760007F2283120D089A000C089900013098002E
:1007700018089C0719081A04031DA82B1C088400DC
:100780008313800101309C0217088D0016088C002D
:1007900015088F0014088E00182283120C08980088
:1007A00018089B0017088D0016088C0015088F008C
:1007B00014088E007F2283120D0895000C08940007
:1007C0000A301B02031CE82B0730980018089B070F
:1007D0003030980018089B071B0898001C088400FC
:1007E00018088313800001309C0214081504031DAF
:1007F000C42B0130980018089C0708008301FE2ACA
:02400E00F1FFC0
:00000001FF
